{
  "contractName": "PixelNFT",
  "abi": [
    {
      "inputs": [],
      "stateMutability": "nonpayable",
      "type": "constructor"
    },
    {
      "inputs": [
        {
          "internalType": "address",
          "name": "sender",
          "type": "address"
        },
        {
          "internalType": "uint256",
          "name": "tokenId",
          "type": "uint256"
        },
        {
          "internalType": "address",
          "name": "owner",
          "type": "address"
        }
      ],
      "name": "ERC721IncorrectOwner",
      "type": "error"
    },
    {
      "inputs": [
        {
          "internalType": "address",
          "name": "operator",
          "type": "address"
        },
        {
          "internalType": "uint256",
          "name": "tokenId",
          "type": "uint256"
        }
      ],
      "name": "ERC721InsufficientApproval",
      "type": "error"
    },
    {
      "inputs": [
        {
          "internalType": "address",
          "name": "approver",
          "type": "address"
        }
      ],
      "name": "ERC721InvalidApprover",
      "type": "error"
    },
    {
      "inputs": [
        {
          "internalType": "address",
          "name": "operator",
          "type": "address"
        }
      ],
      "name": "ERC721InvalidOperator",
      "type": "error"
    },
    {
      "inputs": [
        {
          "internalType": "address",
          "name": "owner",
          "type": "address"
        }
      ],
      "name": "ERC721InvalidOwner",
      "type": "error"
    },
    {
      "inputs": [
        {
          "internalType": "address",
          "name": "receiver",
          "type": "address"
        }
      ],
      "name": "ERC721InvalidReceiver",
      "type": "error"
    },
    {
      "inputs": [
        {
          "internalType": "address",
          "name": "sender",
          "type": "address"
        }
      ],
      "name": "ERC721InvalidSender",
      "type": "error"
    },
    {
      "inputs": [
        {
          "internalType": "uint256",
          "name": "tokenId",
          "type": "uint256"
        }
      ],
      "name": "ERC721NonexistentToken",
      "type": "error"
    },
    {
      "inputs": [
        {
          "internalType": "address",
          "name": "owner",
          "type": "address"
        }
      ],
      "name": "OwnableInvalidOwner",
      "type": "error"
    },
    {
      "inputs": [
        {
          "internalType": "address",
          "name": "account",
          "type": "address"
        }
      ],
      "name": "OwnableUnauthorizedAccount",
      "type": "error"
    },
    {
      "anonymous": false,
      "inputs": [
        {
          "indexed": true,
          "internalType": "address",
          "name": "owner",
          "type": "address"
        },
        {
          "indexed": true,
          "internalType": "address",
          "name": "approved",
          "type": "address"
        },
        {
          "indexed": true,
          "internalType": "uint256",
          "name": "tokenId",
          "type": "uint256"
        }
      ],
      "name": "Approval",
      "type": "event"
    },
    {
      "anonymous": false,
      "inputs": [
        {
          "indexed": true,
          "internalType": "address",
          "name": "owner",
          "type": "address"
        },
        {
          "indexed": true,
          "internalType": "address",
          "name": "operator",
          "type": "address"
        },
        {
          "indexed": false,
          "internalType": "bool",
          "name": "approved",
          "type": "bool"
        }
      ],
      "name": "ApprovalForAll",
      "type": "event"
    },
    {
      "anonymous": false,
      "inputs": [
        {
          "indexed": false,
          "internalType": "uint256",
          "name": "_fromTokenId",
          "type": "uint256"
        },
        {
          "indexed": false,
          "internalType": "uint256",
          "name": "_toTokenId",
          "type": "uint256"
        }
      ],
      "name": "BatchMetadataUpdate",
      "type": "event"
    },
    {
      "anonymous": false,
      "inputs": [
        {
          "indexed": false,
          "internalType": "uint256",
          "name": "_tokenId",
          "type": "uint256"
        }
      ],
      "name": "MetadataUpdate",
      "type": "event"
    },
    {
      "anonymous": false,
      "inputs": [
        {
          "indexed": true,
          "internalType": "address",
          "name": "creator",
          "type": "address"
        },
        {
          "indexed": true,
          "internalType": "uint256",
          "name": "tokenId",
          "type": "uint256"
        },
        {
          "indexed": false,
          "internalType": "string",
          "name": "uri",
          "type": "string"
        },
        {
          "indexed": false,
          "internalType": "uint256",
          "name": "price",
          "type": "uint256"
        }
      ],
      "name": "NFTMinted",
      "type": "event"
    },
    {
      "anonymous": false,
      "inputs": [
        {
          "indexed": true,
          "internalType": "address",
          "name": "previousOwner",
          "type": "address"
        },
        {
          "indexed": true,
          "internalType": "address",
          "name": "newOwner",
          "type": "address"
        }
      ],
      "name": "OwnershipTransferred",
      "type": "event"
    },
    {
      "anonymous": false,
      "inputs": [
        {
          "indexed": true,
          "internalType": "uint256",
          "name": "tokenId",
          "type": "uint256"
        },
        {
          "indexed": false,
          "internalType": "uint256",
          "name": "newPrice",
          "type": "uint256"
        }
      ],
      "name": "PriceUpdated",
      "type": "event"
    },
    {
      "anonymous": false,
      "inputs": [
        {
          "indexed": true,
          "internalType": "address",
          "name": "from",
          "type": "address"
        },
        {
          "indexed": true,
          "internalType": "address",
          "name": "to",
          "type": "address"
        },
        {
          "indexed": true,
          "internalType": "uint256",
          "name": "tokenId",
          "type": "uint256"
        }
      ],
      "name": "Transfer",
      "type": "event"
    },
    {
      "inputs": [
        {
          "internalType": "address",
          "name": "to",
          "type": "address"
        },
        {
          "internalType": "uint256",
          "name": "tokenId",
          "type": "uint256"
        }
      ],
      "name": "approve",
      "outputs": [],
      "stateMutability": "nonpayable",
      "type": "function"
    },
    {
      "inputs": [
        {
          "internalType": "address",
          "name": "owner",
          "type": "address"
        }
      ],
      "name": "balanceOf",
      "outputs": [
        {
          "internalType": "uint256",
          "name": "",
          "type": "uint256"
        }
      ],
      "stateMutability": "view",
      "type": "function",
      "constant": true
    },
    {
      "inputs": [
        {
          "internalType": "uint256",
          "name": "tokenId",
          "type": "uint256"
        }
      ],
      "name": "getApproved",
      "outputs": [
        {
          "internalType": "address",
          "name": "",
          "type": "address"
        }
      ],
      "stateMutability": "view",
      "type": "function",
      "constant": true
    },
    {
      "inputs": [
        {
          "internalType": "address",
          "name": "owner",
          "type": "address"
        },
        {
          "internalType": "address",
          "name": "operator",
          "type": "address"
        }
      ],
      "name": "isApprovedForAll",
      "outputs": [
        {
          "internalType": "bool",
          "name": "",
          "type": "bool"
        }
      ],
      "stateMutability": "view",
      "type": "function",
      "constant": true
    },
    {
      "inputs": [],
      "name": "name",
      "outputs": [
        {
          "internalType": "string",
          "name": "",
          "type": "string"
        }
      ],
      "stateMutability": "view",
      "type": "function",
      "constant": true
    },
    {
      "inputs": [],
      "name": "owner",
      "outputs": [
        {
          "internalType": "address",
          "name": "",
          "type": "address"
        }
      ],
      "stateMutability": "view",
      "type": "function",
      "constant": true
    },
    {
      "inputs": [
        {
          "internalType": "uint256",
          "name": "tokenId",
          "type": "uint256"
        }
      ],
      "name": "ownerOf",
      "outputs": [
        {
          "internalType": "address",
          "name": "",
          "type": "address"
        }
      ],
      "stateMutability": "view",
      "type": "function",
      "constant": true
    },
    {
      "inputs": [],
      "name": "renounceOwnership",
      "outputs": [],
      "stateMutability": "nonpayable",
      "type": "function"
    },
    {
      "inputs": [
        {
          "internalType": "address",
          "name": "from",
          "type": "address"
        },
        {
          "internalType": "address",
          "name": "to",
          "type": "address"
        },
        {
          "internalType": "uint256",
          "name": "tokenId",
          "type": "uint256"
        }
      ],
      "name": "safeTransferFrom",
      "outputs": [],
      "stateMutability": "nonpayable",
      "type": "function"
    },
    {
      "inputs": [
        {
          "internalType": "address",
          "name": "from",
          "type": "address"
        },
        {
          "internalType": "address",
          "name": "to",
          "type": "address"
        },
        {
          "internalType": "uint256",
          "name": "tokenId",
          "type": "uint256"
        },
        {
          "internalType": "bytes",
          "name": "data",
          "type": "bytes"
        }
      ],
      "name": "safeTransferFrom",
      "outputs": [],
      "stateMutability": "nonpayable",
      "type": "function"
    },
    {
      "inputs": [
        {
          "internalType": "address",
          "name": "operator",
          "type": "address"
        },
        {
          "internalType": "bool",
          "name": "approved",
          "type": "bool"
        }
      ],
      "name": "setApprovalForAll",
      "outputs": [],
      "stateMutability": "nonpayable",
      "type": "function"
    },
    {
      "inputs": [],
      "name": "symbol",
      "outputs": [
        {
          "internalType": "string",
          "name": "",
          "type": "string"
        }
      ],
      "stateMutability": "view",
      "type": "function",
      "constant": true
    },
    {
      "inputs": [
        {
          "internalType": "address",
          "name": "from",
          "type": "address"
        },
        {
          "internalType": "address",
          "name": "to",
          "type": "address"
        },
        {
          "internalType": "uint256",
          "name": "tokenId",
          "type": "uint256"
        }
      ],
      "name": "transferFrom",
      "outputs": [],
      "stateMutability": "nonpayable",
      "type": "function"
    },
    {
      "inputs": [
        {
          "internalType": "address",
          "name": "newOwner",
          "type": "address"
        }
      ],
      "name": "transferOwnership",
      "outputs": [],
      "stateMutability": "nonpayable",
      "type": "function"
    },
    {
      "inputs": [
        {
          "internalType": "address",
          "name": "recipient",
          "type": "address"
        },
        {
          "internalType": "string",
          "name": "uri",
          "type": "string"
        },
        {
          "internalType": "uint256",
          "name": "price",
          "type": "uint256"
        }
      ],
      "name": "mintNFT",
      "outputs": [
        {
          "internalType": "uint256",
          "name": "",
          "type": "uint256"
        }
      ],
      "stateMutability": "nonpayable",
      "type": "function"
    },
    {
      "inputs": [
        {
          "internalType": "uint256",
          "name": "tokenId",
          "type": "uint256"
        },
        {
          "internalType": "uint256",
          "name": "newPrice",
          "type": "uint256"
        }
      ],
      "name": "updatePrice",
      "outputs": [],
      "stateMutability": "nonpayable",
      "type": "function"
    },
    {
      "inputs": [
        {
          "internalType": "uint256",
          "name": "tokenId",
          "type": "uint256"
        }
      ],
      "name": "getPrice",
      "outputs": [
        {
          "internalType": "uint256",
          "name": "",
          "type": "uint256"
        }
      ],
      "stateMutability": "view",
      "type": "function",
      "constant": true
    },
    {
      "inputs": [
        {
          "internalType": "uint256",
          "name": "tokenId",
          "type": "uint256"
        }
      ],
      "name": "tokenURI",
      "outputs": [
        {
          "internalType": "string",
          "name": "",
          "type": "string"
        }
      ],
      "stateMutability": "view",
      "type": "function",
      "constant": true
    },
    {
      "inputs": [
        {
          "internalType": "bytes4",
          "name": "interfaceId",
          "type": "bytes4"
        }
      ],
      "name": "supportsInterface",
      "outputs": [
        {
          "internalType": "bool",
          "name": "",
          "type": "bool"
        }
      ],
      "stateMutability": "view",
      "type": "function",
      "constant": true
    }
  ],
  "bytecode": "0x608060405234801562000010575f80fd5b503360405180604001604052806008815260200167141a5e195b13919560c21b81525060405180604001604052806005815260200164141613919560da1b815250815f9081620000619190620001a8565b506001620000708282620001a8565b5050506001600160a01b038116620000a157604051631e4fbdf760e01b81525f600482015260240160405180910390fd5b620000ac81620000b7565b505f60085562000270565b600780546001600160a01b038381166001600160a01b0319831681179093556040519116919082907f8be0079c531659141344cd1fd0a4f28419497f9722a3daafe3b4186f6b6457e0905f90a35050565b634e487b7160e01b5f52604160045260245ffd5b600181811c908216806200013157607f821691505b6020821081036200015057634e487b7160e01b5f52602260045260245ffd5b50919050565b601f821115620001a3575f81815260208120601f850160051c810160208610156200017e5750805b601f850160051c820191505b818110156200019f578281556001016200018a565b5050505b505050565b81516001600160401b03811115620001c457620001c462000108565b620001dc81620001d584546200011c565b8462000156565b602080601f83116001811462000212575f8415620001fa5750858301515b5f19600386901b1c1916600185901b1785556200019f565b5f85815260208120601f198616915b82811015620002425788860151825594840194600190910190840162000221565b50858210156200026057878501515f19600388901b60f8161c191681555b5050505050600190811b01905550565b611631806200027e5f395ff3fe608060405234801561000f575f80fd5b506004361061011c575f3560e01c8063715018a6116100a9578063b88d4fde1161006e578063b88d4fde14610251578063c87b56dd14610264578063e757223014610277578063e985e9c51461028a578063f2fde38b1461029d575f80fd5b8063715018a61461020a57806382367b2d146102125780638da5cb5b1461022557806395d89b4114610236578063a22cb4651461023e575f80fd5b8063095ea7b3116100ef578063095ea7b3146101a957806323b872dd146101be57806342842e0e146101d15780636352211e146101e457806370a08231146101f7575f80fd5b806301ffc9a71461012057806306fdde0314610148578063081812fc1461015d57806308598df014610188575b5f80fd5b61013361012e3660046110e9565b6102b0565b60405190151581526020015b60405180910390f35b6101506102c0565b60405161013f9190611151565b61017061016b366004611163565b61034f565b6040516001600160a01b03909116815260200161013f565b61019b61019636600461121c565b610376565b60405190815260200161013f565b6101bc6101b7366004611282565b610404565b005b6101bc6101cc3660046112aa565b610413565b6101bc6101df3660046112aa565b6104a1565b6101706101f2366004611163565b6104c0565b61019b6102053660046112e3565b6104ca565b6101bc61050f565b6101bc6102203660046112fc565b610522565b6007546001600160a01b0316610170565b610150610640565b6101bc61024c36600461131c565b61064f565b6101bc61025f366004611355565b61065a565b610150610272366004611163565b610672565b61019b610285366004611163565b61067d565b6101336102983660046113cc565b6106f0565b6101bc6102ab3660046112e3565b61071d565b5f6102ba8261075a565b92915050565b60605f80546102ce906113fd565b80601f01602080910402602001604051908101604052809291908181526020018280546102fa906113fd565b80156103455780601f1061031c57610100808354040283529160200191610345565b820191905f5260205f20905b81548152906001019060200180831161032857829003601f168201915b5050505050905090565b5f6103598261077e565b505f828152600460205260409020546001600160a01b03166102ba565b5f600160085f8282546103899190611435565b909155505060085461039b85826107b6565b6103a581856107cf565b5f81815260096020526040908190208490555181906001600160a01b038716907f7f9dd5d8fa69e733db2277a568b65a9651a3042da18fb2b5ea1966d3891cbfda906103f49088908890611454565b60405180910390a3949350505050565b61040f82823361081e565b5050565b6001600160a01b03821661044157604051633250574960e11b81525f60048201526024015b60405180910390fd5b5f61044d83833361082b565b9050836001600160a01b0316816001600160a01b03161461049b576040516364283d7b60e01b81526001600160a01b0380861660048301526024820184905282166044820152606401610438565b50505050565b6104bb83838360405180602001604052805f81525061065a565b505050565b5f6102ba8261077e565b5f6001600160a01b0382166104f4576040516322718ad960e21b81525f6004820152602401610438565b506001600160a01b03165f9081526003602052604090205490565b61051761091d565b6105205f61094a565b565b5f61052c836104c0565b6001600160a01b0316036105825760405162461bcd60e51b815260206004820152601e60248201527f506978656c4e46543a20546f6b656e20646f6573206e6f7420657869737400006044820152606401610438565b3361058c836104c0565b6001600160a01b0316146105f05760405162461bcd60e51b815260206004820152602560248201527f506978656c4e46543a204f6e6c79206f776e65722063616e2075706461746520604482015264707269636560d81b6064820152608401610438565b5f82815260096020526040908190208290555182907f945c1c4e99aa89f648fbfe3df471b916f719e16d960fcec0737d4d56bd696838906106349084815260200190565b60405180910390a25050565b6060600180546102ce906113fd565b61040f33838361099b565b610665848484610413565b61049b3385858585610a39565b60606102ba82610b61565b5f80610688836104c0565b6001600160a01b0316036106de5760405162461bcd60e51b815260206004820152601e60248201527f506978656c4e46543a20546f6b656e20646f6573206e6f7420657869737400006044820152606401610438565b505f9081526009602052604090205490565b6001600160a01b039182165f90815260056020908152604080832093909416825291909152205460ff1690565b61072561091d565b6001600160a01b03811661074e57604051631e4fbdf760e01b81525f6004820152602401610438565b6107578161094a565b50565b5f6001600160e01b03198216632483248360e11b14806102ba57506102ba82610c6c565b5f818152600260205260408120546001600160a01b0316806102ba57604051637e27328960e01b815260048101849052602401610438565b61040f828260405180602001604052805f815250610cbb565b5f8281526006602052604090206107e682826114ba565b506040518281527ff8e1a15aba9398e019f0b49df1a4fde98ee17ae345cb5f6b5e2c27f5033e8ce79060200160405180910390a15050565b6104bb8383836001610cd2565b5f828152600260205260408120546001600160a01b039081169083161561085757610857818486610dd6565b6001600160a01b03811615610891576108725f855f80610cd2565b6001600160a01b0381165f90815260036020526040902080545f190190555b6001600160a01b038516156108bf576001600160a01b0385165f908152600360205260409020805460010190555b5f8481526002602052604080822080546001600160a01b0319166001600160a01b0389811691821790925591518793918516917fddf252ad1be2c89b69c2b068fc378daa952ba7f163c4a11628f55a4df523b3ef91a4949350505050565b6007546001600160a01b031633146105205760405163118cdaa760e01b8152336004820152602401610438565b600780546001600160a01b038381166001600160a01b0319831681179093556040519116919082907f8be0079c531659141344cd1fd0a4f28419497f9722a3daafe3b4186f6b6457e0905f90a35050565b6001600160a01b0382166109cd57604051630b61174360e31b81526001600160a01b0383166004820152602401610438565b6001600160a01b038381165f81815260056020908152604080832094871680845294825291829020805460ff191686151590811790915591519182527f17307eab39ab6107e8899845ad3d59bd9653f200f220920489ca2b5937696c31910160405180910390a3505050565b6001600160a01b0383163b15610b5a57604051630a85bd0160e11b81526001600160a01b0384169063150b7a0290610a7b908890889087908790600401611576565b6020604051808303815f875af1925050508015610ab5575060408051601f3d908101601f19168201909252610ab2918101906115b2565b60015b610b1c573d808015610ae2576040519150601f19603f3d011682016040523d82523d5f602084013e610ae7565b606091505b5080515f03610b1457604051633250574960e11b81526001600160a01b0385166004820152602401610438565b805181602001fd5b6001600160e01b03198116630a85bd0160e11b14610b5857604051633250574960e11b81526001600160a01b0385166004820152602401610438565b505b5050505050565b6060610b6c8261077e565b505f8281526006602052604081208054610b85906113fd565b80601f0160208091040260200160405190810160405280929190818152602001828054610bb1906113fd565b8015610bfc5780601f10610bd357610100808354040283529160200191610bfc565b820191905f5260205f20905b815481529060010190602001808311610bdf57829003601f168201915b505050505090505f610c1860408051602081019091525f815290565b905080515f03610c29575092915050565b815115610c5b578082604051602001610c439291906115cd565b60405160208183030381529060405292505050919050565b610c6484610e3a565b949350505050565b5f6001600160e01b031982166380ac58cd60e01b1480610c9c57506001600160e01b03198216635b5e139f60e01b145b806102ba57506301ffc9a760e01b6001600160e01b03198316146102ba565b610cc58383610eab565b6104bb335f858585610a39565b8080610ce657506001600160a01b03821615155b15610da7575f610cf58461077e565b90506001600160a01b03831615801590610d215750826001600160a01b0316816001600160a01b031614155b8015610d345750610d3281846106f0565b155b15610d5d5760405163a9fbf51f60e01b81526001600160a01b0384166004820152602401610438565b8115610da55783856001600160a01b0316826001600160a01b03167f8c5be1e5ebec7d5bd14f71427d1e84f3dd0314c0f7b2291e5b200ac8c7c3b92560405160405180910390a45b505b50505f90815260046020526040902080546001600160a01b0319166001600160a01b0392909216919091179055565b610de1838383610f0c565b6104bb576001600160a01b038316610e0f57604051637e27328960e01b815260048101829052602401610438565b60405163177e802f60e01b81526001600160a01b038316600482015260248101829052604401610438565b6060610e458261077e565b505f610e5b60408051602081019091525f815290565b90505f815111610e795760405180602001604052805f815250610ea4565b80610e8384610f6d565b604051602001610e949291906115cd565b6040516020818303038152906040525b9392505050565b6001600160a01b038216610ed457604051633250574960e11b81525f6004820152602401610438565b5f610ee083835f61082b565b90506001600160a01b038116156104bb576040516339e3563760e11b81525f6004820152602401610438565b5f6001600160a01b03831615801590610c645750826001600160a01b0316846001600160a01b03161480610f455750610f4584846106f0565b80610c645750505f908152600460205260409020546001600160a01b03908116911614919050565b60605f610f7983610ffd565b60010190505f8167ffffffffffffffff811115610f9857610f98611195565b6040519080825280601f01601f191660200182016040528015610fc2576020820181803683370190505b5090508181016020015b5f19016f181899199a1a9b1b9c1cb0b131b232b360811b600a86061a8153600a8504945084610fcc57509392505050565b5f8072184f03e93ff9f4daa797ed6e38ed64bf6a1f0160401b831061103b5772184f03e93ff9f4daa797ed6e38ed64bf6a1f0160401b830492506040015b6d04ee2d6d415b85acef81000000008310611067576d04ee2d6d415b85acef8100000000830492506020015b662386f26fc10000831061108557662386f26fc10000830492506010015b6305f5e100831061109d576305f5e100830492506008015b61271083106110b157612710830492506004015b606483106110c3576064830492506002015b600a83106102ba5760010192915050565b6001600160e01b031981168114610757575f80fd5b5f602082840312156110f9575f80fd5b8135610ea4816110d4565b5f5b8381101561111e578181015183820152602001611106565b50505f910152565b5f815180845261113d816020860160208601611104565b601f01601f19169290920160200192915050565b602081525f610ea46020830184611126565b5f60208284031215611173575f80fd5b5035919050565b80356001600160a01b0381168114611190575f80fd5b919050565b634e487b7160e01b5f52604160045260245ffd5b5f67ffffffffffffffff808411156111c3576111c3611195565b604051601f8501601f19908116603f011681019082821181831017156111eb576111eb611195565b81604052809350858152868686011115611203575f80fd5b858560208301375f602087830101525050509392505050565b5f805f6060848603121561122e575f80fd5b6112378461117a565b9250602084013567ffffffffffffffff811115611252575f80fd5b8401601f81018613611262575f80fd5b611271868235602084016111a9565b925050604084013590509250925092565b5f8060408385031215611293575f80fd5b61129c8361117a565b946020939093013593505050565b5f805f606084860312156112bc575f80fd5b6112c58461117a565b92506112d36020850161117a565b9150604084013590509250925092565b5f602082840312156112f3575f80fd5b610ea48261117a565b5f806040838503121561130d575f80fd5b50508035926020909101359150565b5f806040838503121561132d575f80fd5b6113368361117a565b91506020830135801515811461134a575f80fd5b809150509250929050565b5f805f8060808587031215611368575f80fd5b6113718561117a565b935061137f6020860161117a565b925060408501359150606085013567ffffffffffffffff8111156113a1575f80fd5b8501601f810187136113b1575f80fd5b6113c0878235602084016111a9565b91505092959194509250565b5f80604083850312156113dd575f80fd5b6113e68361117a565b91506113f46020840161117a565b90509250929050565b600181811c9082168061141157607f821691505b60208210810361142f57634e487b7160e01b5f52602260045260245ffd5b50919050565b808201808211156102ba57634e487b7160e01b5f52601160045260245ffd5b604081525f6114666040830185611126565b90508260208301529392505050565b601f8211156104bb575f81815260208120601f850160051c8101602086101561149b5750805b601f850160051c820191505b81811015610b58578281556001016114a7565b815167ffffffffffffffff8111156114d4576114d4611195565b6114e8816114e284546113fd565b84611475565b602080601f83116001811461151b575f84156115045750858301515b5f19600386901b1c1916600185901b178555610b58565b5f85815260208120601f198616915b828110156115495788860151825594840194600190910190840161152a565b508582101561156657878501515f19600388901b60f8161c191681555b5050505050600190811b01905550565b6001600160a01b03858116825284166020820152604081018390526080606082018190525f906115a890830184611126565b9695505050505050565b5f602082840312156115c2575f80fd5b8151610ea4816110d4565b5f83516115de818460208801611104565b8351908301906115f2818360208801611104565b0194935050505056fea26469706673582212203a9166294214f3c2c170c540eaa5bca17c1963809325e688ae39799b16006d5264736f6c63430008140033",
  "immutableReferences": {},
  "source": "// SPDX-License-Identifier: MIT\r\npragma solidity ^0.8.20;\r\n\r\nimport \"@openzeppelin/contracts/token/ERC721/ERC721.sol\";\r\nimport \"@openzeppelin/contracts/token/ERC721/extensions/ERC721URIStorage.sol\";\r\nimport \"@openzeppelin/contracts/access/Ownable.sol\";\r\n\r\ncontract PixelNFT is ERC721, ERC721URIStorage, Ownable {\r\n    // Track the next token ID\r\n    uint256 private _currentTokenId;\r\n\r\n    // Mapping from token ID to price\r\n    mapping(uint256 => uint256) private _tokenPrices;\r\n\r\n    // Events\r\n    event NFTMinted(\r\n        address indexed creator,\r\n        uint256 indexed tokenId,\r\n        string uri,\r\n        uint256 price\r\n    );\r\n    event PriceUpdated(uint256 indexed tokenId, uint256 newPrice);\r\n\r\n    constructor() ERC721(\"PixelNFT\", \"PXNFT\") Ownable(msg.sender) {\r\n        _currentTokenId = 0;\r\n    }\r\n\r\n    // Mint new NFT\r\n    function mintNFT(\r\n        address recipient,\r\n        string memory uri,\r\n        uint256 price\r\n    ) public returns (uint256) {\r\n        _currentTokenId += 1;\r\n        uint256 newTokenId = _currentTokenId;\r\n\r\n        _safeMint(recipient, newTokenId);\r\n        _setTokenURI(newTokenId, uri);\r\n        _tokenPrices[newTokenId] = price;\r\n\r\n        emit NFTMinted(recipient, newTokenId, uri, price);\r\n\r\n        return newTokenId;\r\n    }\r\n\r\n    // Update price of existing NFT\r\n    function updatePrice(uint256 tokenId, uint256 newPrice) public {\r\n        require(\r\n            ownerOf(tokenId) != address(0),\r\n            \"PixelNFT: Token does not exist\"\r\n        );\r\n        require(\r\n            ownerOf(tokenId) == msg.sender,\r\n            \"PixelNFT: Only owner can update price\"\r\n        );\r\n\r\n        _tokenPrices[tokenId] = newPrice;\r\n        emit PriceUpdated(tokenId, newPrice);\r\n    }\r\n\r\n    // Get price of an NFT\r\n    function getPrice(uint256 tokenId) public view returns (uint256) {\r\n        require(\r\n            ownerOf(tokenId) != address(0),\r\n            \"PixelNFT: Token does not exist\"\r\n        );\r\n        return _tokenPrices[tokenId];\r\n    }\r\n\r\n    // Required overrides\r\n    function tokenURI(\r\n        uint256 tokenId\r\n    ) public view override(ERC721, ERC721URIStorage) returns (string memory) {\r\n        return super.tokenURI(tokenId);\r\n    }\r\n\r\n    function supportsInterface(\r\n        bytes4 interfaceId\r\n    ) public view override(ERC721, ERC721URIStorage) returns (bool) {\r\n        return super.supportsInterface(interfaceId);\r\n    }\r\n}\r\n",
  "sourcePath": "E:\\telos\\pixelator\\contracts\\PixelNFT.sol",
  "compiler": {
    "name": "solc",
    "version": "0.8.20+commit.a1b79de6.Emscripten.clang"
  },
  "schemaVersion": "3.4.16",
  "updatedAt": "2025-01-04T19:15:16.906Z",
  "networkType": "ethereum",
  "devdoc": {
    "errors": {
      "ERC721IncorrectOwner(address,uint256,address)": [
        {
          "details": "Indicates an error related to the ownership over a particular token. Used in transfers.",
          "params": {
            "owner": "Address of the current owner of a token.",
            "sender": "Address whose tokens are being transferred.",
            "tokenId": "Identifier number of a token."
          }
        }
      ],
      "ERC721InsufficientApproval(address,uint256)": [
        {
          "details": "Indicates a failure with the `operator`s approval. Used in transfers.",
          "params": {
            "operator": "Address that may be allowed to operate on tokens without being their owner.",
            "tokenId": "Identifier number of a token."
          }
        }
      ],
      "ERC721InvalidApprover(address)": [
        {
          "details": "Indicates a failure with the `approver` of a token to be approved. Used in approvals.",
          "params": {
            "approver": "Address initiating an approval operation."
          }
        }
      ],
      "ERC721InvalidOperator(address)": [
        {
          "details": "Indicates a failure with the `operator` to be approved. Used in approvals.",
          "params": {
            "operator": "Address that may be allowed to operate on tokens without being their owner."
          }
        }
      ],
      "ERC721InvalidOwner(address)": [
        {
          "details": "Indicates that an address can't be an owner. For example, `address(0)` is a forbidden owner in ERC-20. Used in balance queries.",
          "params": {
            "owner": "Address of the current owner of a token."
          }
        }
      ],
      "ERC721InvalidReceiver(address)": [
        {
          "details": "Indicates a failure with the token `receiver`. Used in transfers.",
          "params": {
            "receiver": "Address to which tokens are being transferred."
          }
        }
      ],
      "ERC721InvalidSender(address)": [
        {
          "details": "Indicates a failure with the token `sender`. Used in transfers.",
          "params": {
            "sender": "Address whose tokens are being transferred."
          }
        }
      ],
      "ERC721NonexistentToken(uint256)": [
        {
          "details": "Indicates a `tokenId` whose `owner` is the zero address.",
          "params": {
            "tokenId": "Identifier number of a token."
          }
        }
      ],
      "OwnableInvalidOwner(address)": [
        {
          "details": "The owner is not a valid owner account. (eg. `address(0)`)"
        }
      ],
      "OwnableUnauthorizedAccount(address)": [
        {
          "details": "The caller account is not authorized to perform an operation."
        }
      ]
    },
    "events": {
      "Approval(address,address,uint256)": {
        "details": "Emitted when `owner` enables `approved` to manage the `tokenId` token."
      },
      "ApprovalForAll(address,address,bool)": {
        "details": "Emitted when `owner` enables or disables (`approved`) `operator` to manage all of its assets."
      },
      "BatchMetadataUpdate(uint256,uint256)": {
        "details": "This event emits when the metadata of a range of tokens is changed. So that the third-party platforms such as NFT market could timely update the images and related attributes of the NFTs."
      },
      "MetadataUpdate(uint256)": {
        "details": "This event emits when the metadata of a token is changed. So that the third-party platforms such as NFT market could timely update the images and related attributes of the NFT."
      },
      "Transfer(address,address,uint256)": {
        "details": "Emitted when `tokenId` token is transferred from `from` to `to`."
      }
    },
    "kind": "dev",
    "methods": {
      "approve(address,uint256)": {
        "details": "See {IERC721-approve}."
      },
      "balanceOf(address)": {
        "details": "See {IERC721-balanceOf}."
      },
      "getApproved(uint256)": {
        "details": "See {IERC721-getApproved}."
      },
      "isApprovedForAll(address,address)": {
        "details": "See {IERC721-isApprovedForAll}."
      },
      "name()": {
        "details": "See {IERC721Metadata-name}."
      },
      "owner()": {
        "details": "Returns the address of the current owner."
      },
      "ownerOf(uint256)": {
        "details": "See {IERC721-ownerOf}."
      },
      "renounceOwnership()": {
        "details": "Leaves the contract without owner. It will not be possible to call `onlyOwner` functions. Can only be called by the current owner. NOTE: Renouncing ownership will leave the contract without an owner, thereby disabling any functionality that is only available to the owner."
      },
      "safeTransferFrom(address,address,uint256)": {
        "details": "See {IERC721-safeTransferFrom}."
      },
      "safeTransferFrom(address,address,uint256,bytes)": {
        "details": "See {IERC721-safeTransferFrom}."
      },
      "setApprovalForAll(address,bool)": {
        "details": "See {IERC721-setApprovalForAll}."
      },
      "symbol()": {
        "details": "See {IERC721Metadata-symbol}."
      },
      "transferFrom(address,address,uint256)": {
        "details": "See {IERC721-transferFrom}."
      },
      "transferOwnership(address)": {
        "details": "Transfers ownership of the contract to a new account (`newOwner`). Can only be called by the current owner."
      }
    },
    "version": 1
  },
  "userdoc": {
    "kind": "user",
    "methods": {},
    "version": 1
  }
}